{
  "contractName": "MissionTracker",
  "abi": [
    {
      "constant": false,
      "inputs": [
        {
          "name": "_reviewer",
          "type": "uint256"
        },
        {
          "name": "_game",
          "type": "address"
        },
        {
          "name": "_checkpoint",
          "type": "uint256"
        }
      ],
      "name": "registerCheckpointComplete",
      "outputs": [
        {
          "name": "success",
          "type": "bool"
        }
      ],
      "payable": false,
      "stateMutability": "nonpayable",
      "type": "function"
    },
    {
      "constant": true,
      "inputs": [
        {
          "name": "_reviewer",
          "type": "uint256"
        },
        {
          "name": "_game",
          "type": "address"
        },
        {
          "name": "_checkpoint",
          "type": "uint256"
        }
      ],
      "name": "getCheckpointComplete",
      "outputs": [
        {
          "name": "complete",
          "type": "bool"
        }
      ],
      "payable": false,
      "stateMutability": "view",
      "type": "function"
    },
    {
      "constant": false,
      "inputs": [
        {
          "name": "_checkpointName",
          "type": "string"
        }
      ],
      "name": "addGameCheckpoint",
      "outputs": [
        {
          "name": "checkpointId",
          "type": "uint256"
        }
      ],
      "payable": false,
      "stateMutability": "nonpayable",
      "type": "function"
    }
  ],
  "bytecode": "0x608060405234801561001057600080fd5b5061044f806100206000396000f300608060405260043610610057576000357c0100000000000000000000000000000000000000000000000000000000900463ffffffff1680630a2d5bf71461005c5780630cdce283146100cb578063b419fc0d1461013a575b600080fd5b34801561006857600080fd5b506100b160048036038101908080359060200190929190803573ffffffffffffffffffffffffffffffffffffffff169060200190929190803590602001909291905050506101b7565b604051808215151515815260200191505060405180910390f35b3480156100d757600080fd5b5061012060048036038101908080359060200190929190803573ffffffffffffffffffffffffffffffffffffffff1690602001909291908035906020019092919050505061023d565b604051808215151515815260200191505060405180910390f35b34801561014657600080fd5b506101a1600480360381019080803590602001908201803590602001908080601f01602080910402602001604051908101604052809392919081815260200183838082843782019150505050505091929192905050506102b6565b6040518082815260200191505060405180910390f35b6000600160008086815260200190815260200160002060008573ffffffffffffffffffffffffffffffffffffffff1673ffffffffffffffffffffffffffffffffffffffff168152602001908152602001600020600084815260200190815260200160002060006101000a81548160ff021916908315150217905550600190509392505050565b600080600085815260200190815260200160002060008473ffffffffffffffffffffffffffffffffffffffff1673ffffffffffffffffffffffffffffffffffffffff168152602001908152602001600020600083815260200190815260200160002060009054906101000a900460ff1690509392505050565b6000600160003373ffffffffffffffffffffffffffffffffffffffff1673ffffffffffffffffffffffffffffffffffffffff16815260200190815260200160002082908060018154018082558091505090600182039060005260206000200160009091929091909150908051906020019061033292919061037e565b5050600160003373ffffffffffffffffffffffffffffffffffffffff1673ffffffffffffffffffffffffffffffffffffffff168152602001908152602001600020805490509050919050565b828054600181600116156101000203166002900490600052602060002090601f016020900481019282601f106103bf57805160ff19168380011785556103ed565b828001600101855582156103ed579182015b828111156103ec5782518255916020019190600101906103d1565b5b5090506103fa91906103fe565b5090565b61042091905b8082111561041c576000816000905550600101610404565b5090565b905600a165627a7a723058206d6950099c582e6fab4c2935fef0aab91642dda6d20cf4bceee4b152c179c0ef0029",
  "source": "pragma solidity ^0.4.21;\n\ncontract MissionTracker {\n    // Maps reviewer ID -> game address -> checkpoint ID -> complete\n    mapping (uint256 => mapping (address => mapping (uint256 => bool))) completedCheckpoints;\n    // Maps game address -> checkpoint names (aligned with checkpoint IDs)\n    mapping (address => string[]) allCheckpoints;\n\n    /**\n    Records on the blockchain that a reviewer has completed a game's checkpoint.\n\n    The game is identified by the address of the function caller; that is, the game must have a \n    wallet which calls the function to register the checkpoint. This ensures that only the game \n    itself can record checkpoints.\n\n    Args:\n        _reviewer: the ID of the reviewer who completed the checkpoint. The ID should be mapped to\n            the reviewer's identity externally.\n        _checkpoint: the index of the checkpoint in the game's `allCheckpoints` entry.\n     */\n    function registerCheckpointComplete(uint256 _reviewer, address _game, uint256 _checkpoint) public returns (bool success) {\n        completedCheckpoints[_reviewer][_game][_checkpoint] = true;\n        return true;\n    }\n\n    /**\n    Returns whether a given reviewer has a achieved a certain checkpoint in a given game.\n\n    Args:\n        _reviewer: the ID of the reviewer whose completion status is to be checked.\n        _game: the address of the game's wallet.\n        _checkpoint: the index of the checkpoint in the game's `allCheckpoints` entry.\n     */\n    function getCheckpointComplete(uint256 _reviewer, address _game, uint256 _checkpoint) view public returns (bool complete) {\n        return completedCheckpoints[_reviewer][_game][_checkpoint];\n    }\n\n    /**\n    Registers the existence of a new checkpoint for a game.\n\n    It is helpful to have a list of all possible checkpoints for a game, to determine\n    what a reviewer was unable to complete. Games should register all possible checkpoints\n    in advance using this function to build that list.\n\n    Args:\n        _checkpointName: the string name given to the checkpoint by the game creator.\n     */\n    function addGameCheckpoint(string _checkpointName) public returns (uint256 checkpointId) {\n        allCheckpoints[msg.sender].push(_checkpointName);\n        return allCheckpoints[msg.sender].length;\n    }\n}\n",
  "sourcePath": "/Users/derekhuang/Documents/cs359b-mission-tracker/smart-contracts/contracts/MissionTracker.sol",
  "compiler": {
    "name": "solc",
    "version": "0.4.23+commit.124ca40d.Emscripten.clang"
  },
  "schemaVersion": "2.0.0",
  "updatedAt": "2018-05-05T18:33:18.247Z"
}